{
  "_format": "hh-sol-artifact-1",
  "contractName": "ElitePad",
  "sourceName": "contracts/ElitePad.sol",
  "abi": [
    {
      "anonymous": false,
      "inputs": [
        {
          "indexed": false,
          "internalType": "address",
          "name": "authPool",
          "type": "address"
        },
        {
          "indexed": false,
          "internalType": "uint256",
          "name": "chainId",
          "type": "uint256"
        }
      ],
      "name": "AddAuthPool",
      "type": "event"
    },
    {
      "anonymous": false,
      "inputs": [
        {
          "indexed": false,
          "internalType": "address",
          "name": "_authPool",
          "type": "address"
        },
        {
          "indexed": false,
          "internalType": "address",
          "name": "_raffleTicket",
          "type": "address"
        },
        {
          "indexed": false,
          "internalType": "address",
          "name": "_airdrop",
          "type": "address"
        },
        {
          "indexed": false,
          "internalType": "address",
          "name": "_weight",
          "type": "address"
        },
        {
          "indexed": false,
          "internalType": "address",
          "name": "_epochC",
          "type": "address"
        },
        {
          "indexed": false,
          "internalType": "address",
          "name": "_referenceC",
          "type": "address"
        },
        {
          "indexed": false,
          "internalType": "address",
          "name": "_access",
          "type": "address"
        },
        {
          "indexed": false,
          "internalType": "address",
          "name": "_bucketFactory",
          "type": "address"
        },
        {
          "indexed": false,
          "internalType": "address",
          "name": "_weth",
          "type": "address"
        }
      ],
      "name": "Initialize",
      "type": "event"
    },
    {
      "inputs": [],
      "name": "REFERENCE_BONUS_POINT",
      "outputs": [
        {
          "internalType": "uint256",
          "name": "",
          "type": "uint256"
        }
      ],
      "stateMutability": "view",
      "type": "function"
    },
    {
      "inputs": [],
      "name": "REFERENCE_DENOMINATOR",
      "outputs": [
        {
          "internalType": "uint256",
          "name": "",
          "type": "uint256"
        }
      ],
      "stateMutability": "view",
      "type": "function"
    },
    {
      "inputs": [],
      "name": "REFERENCE_VIP_BONUS_POINT",
      "outputs": [
        {
          "internalType": "uint256",
          "name": "",
          "type": "uint256"
        }
      ],
      "stateMutability": "view",
      "type": "function"
    },
    {
      "inputs": [],
      "name": "TICKET_VALIDITY_PERIOD",
      "outputs": [
        {
          "internalType": "uint256",
          "name": "",
          "type": "uint256"
        }
      ],
      "stateMutability": "view",
      "type": "function"
    },
    {
      "inputs": [],
      "name": "access",
      "outputs": [
        {
          "internalType": "contract Access",
          "name": "",
          "type": "address"
        }
      ],
      "stateMutability": "view",
      "type": "function"
    },
    {
      "inputs": [
        {
          "internalType": "address",
          "name": "token",
          "type": "address"
        },
        {
          "internalType": "uint256[]",
          "name": "tokenIds",
          "type": "uint256[]"
        },
        {
          "internalType": "address",
          "name": "tokenOwner",
          "type": "address"
        },
        {
          "internalType": "bytes32",
          "name": "referenceCode",
          "type": "bytes32"
        }
      ],
      "name": "addAuth",
      "outputs": [],
      "stateMutability": "nonpayable",
      "type": "function"
    },
    {
      "inputs": [
        {
          "internalType": "address[]",
          "name": "tokens",
          "type": "address[]"
        },
        {
          "internalType": "uint256[][]",
          "name": "tokenIdss",
          "type": "uint256[][]"
        },
        {
          "internalType": "address",
          "name": "tokenOwner",
          "type": "address"
        },
        {
          "internalType": "bytes32",
          "name": "referenceCode",
          "type": "bytes32"
        }
      ],
      "name": "addAuths",
      "outputs": [],
      "stateMutability": "nonpayable",
      "type": "function"
    },
    {
      "inputs": [],
      "name": "airdrop",
      "outputs": [
        {
          "internalType": "contract AirdropOne",
          "name": "",
          "type": "address"
        }
      ],
      "stateMutability": "view",
      "type": "function"
    },
    {
      "inputs": [],
      "name": "authPool",
      "outputs": [
        {
          "internalType": "contract AuthPool",
          "name": "",
          "type": "address"
        }
      ],
      "stateMutability": "view",
      "type": "function"
    },
    {
      "inputs": [],
      "name": "bucketFactory",
      "outputs": [
        {
          "internalType": "contract BucketFactory",
          "name": "",
          "type": "address"
        }
      ],
      "stateMutability": "view",
      "type": "function"
    },
    {
      "inputs": [],
      "name": "bucketPrice",
      "outputs": [
        {
          "internalType": "uint256",
          "name": "",
          "type": "uint256"
        }
      ],
      "stateMutability": "view",
      "type": "function"
    },
    {
      "inputs": [
        {
          "internalType": "address[]",
          "name": "tokens",
          "type": "address[]"
        }
      ],
      "name": "claim",
      "outputs": [],
      "stateMutability": "nonpayable",
      "type": "function"
    },
    {
      "inputs": [],
      "name": "claim",
      "outputs": [],
      "stateMutability": "nonpayable",
      "type": "function"
    },
    {
      "inputs": [
        {
          "internalType": "address[]",
          "name": "tokens",
          "type": "address[]"
        }
      ],
      "name": "claimAll",
      "outputs": [],
      "stateMutability": "nonpayable",
      "type": "function"
    },
    {
      "inputs": [
        {
          "internalType": "uint256",
          "name": "numPerRound",
          "type": "uint256"
        },
        {
          "internalType": "string",
          "name": "uri",
          "type": "string"
        }
      ],
      "name": "createBucket",
      "outputs": [
        {
          "internalType": "contract Bucket",
          "name": "",
          "type": "address"
        }
      ],
      "stateMutability": "nonpayable",
      "type": "function"
    },
    {
      "inputs": [
        {
          "internalType": "address",
          "name": "token",
          "type": "address"
        },
        {
          "internalType": "uint256[]",
          "name": "tokenIds",
          "type": "uint256[]"
        },
        {
          "internalType": "address",
          "name": "tokenOwner",
          "type": "address"
        }
      ],
      "name": "delAuth",
      "outputs": [],
      "stateMutability": "nonpayable",
      "type": "function"
    },
    {
      "inputs": [
        {
          "internalType": "address[]",
          "name": "tokens",
          "type": "address[]"
        },
        {
          "internalType": "uint256[][]",
          "name": "tokenIdss",
          "type": "uint256[][]"
        },
        {
          "internalType": "address",
          "name": "tokenOwner",
          "type": "address"
        }
      ],
      "name": "delAuths",
      "outputs": [],
      "stateMutability": "nonpayable",
      "type": "function"
    },
    {
      "inputs": [],
      "name": "epochC",
      "outputs": [
        {
          "internalType": "contract Epoch",
          "name": "",
          "type": "address"
        }
      ],
      "stateMutability": "view",
      "type": "function"
    },
    {
      "inputs": [
        {
          "internalType": "contract AuthPool",
          "name": "_authPool",
          "type": "address"
        },
        {
          "internalType": "contract RaffleTicket",
          "name": "_raffleTicket",
          "type": "address"
        },
        {
          "internalType": "contract AirdropOne",
          "name": "_airdrop",
          "type": "address"
        },
        {
          "internalType": "contract Weights",
          "name": "_weight",
          "type": "address"
        },
        {
          "internalType": "contract Epoch",
          "name": "_epochC",
          "type": "address"
        },
        {
          "internalType": "contract Reference",
          "name": "_referenceC",
          "type": "address"
        },
        {
          "internalType": "contract Access",
          "name": "_access",
          "type": "address"
        },
        {
          "internalType": "contract BucketFactory",
          "name": "_bucketFactory",
          "type": "address"
        },
        {
          "internalType": "contract IERC20Upgradeable",
          "name": "_weth",
          "type": "address"
        }
      ],
      "name": "initialize",
      "outputs": [],
      "stateMutability": "nonpayable",
      "type": "function"
    },
    {
      "inputs": [
        {
          "internalType": "address",
          "name": "",
          "type": "address"
        }
      ],
      "name": "pendingGoldenTickets",
      "outputs": [
        {
          "internalType": "uint256",
          "name": "",
          "type": "uint256"
        }
      ],
      "stateMutability": "view",
      "type": "function"
    },
    {
      "inputs": [
        {
          "internalType": "address",
          "name": "account",
          "type": "address"
        },
        {
          "internalType": "address[]",
          "name": "tokens",
          "type": "address[]"
        }
      ],
      "name": "pendingTickets",
      "outputs": [
        {
          "internalType": "uint256",
          "name": "sumTicket",
          "type": "uint256"
        }
      ],
      "stateMutability": "view",
      "type": "function"
    },
    {
      "inputs": [],
      "name": "raffleTicket",
      "outputs": [
        {
          "internalType": "contract RaffleTicket",
          "name": "",
          "type": "address"
        }
      ],
      "stateMutability": "view",
      "type": "function"
    },
    {
      "inputs": [],
      "name": "referenceC",
      "outputs": [
        {
          "internalType": "contract Reference",
          "name": "",
          "type": "address"
        }
      ],
      "stateMutability": "view",
      "type": "function"
    },
    {
      "inputs": [
        {
          "internalType": "uint256",
          "name": "price",
          "type": "uint256"
        }
      ],
      "name": "setBucketPrice",
      "outputs": [],
      "stateMutability": "nonpayable",
      "type": "function"
    },
    {
      "inputs": [
        {
          "internalType": "address",
          "name": "",
          "type": "address"
        },
        {
          "internalType": "uint256",
          "name": "",
          "type": "uint256"
        }
      ],
      "name": "tokenAirdroped",
      "outputs": [
        {
          "internalType": "bool",
          "name": "",
          "type": "bool"
        }
      ],
      "stateMutability": "view",
      "type": "function"
    },
    {
      "inputs": [
        {
          "internalType": "address",
          "name": "",
          "type": "address"
        },
        {
          "internalType": "uint256",
          "name": "",
          "type": "uint256"
        }
      ],
      "name": "userClaimed",
      "outputs": [
        {
          "internalType": "uint256",
          "name": "",
          "type": "uint256"
        }
      ],
      "stateMutability": "view",
      "type": "function"
    },
    {
      "inputs": [],
      "name": "weights",
      "outputs": [
        {
          "internalType": "contract Weights",
          "name": "",
          "type": "address"
        }
      ],
      "stateMutability": "view",
      "type": "function"
    },
    {
      "inputs": [],
      "name": "weth",
      "outputs": [
        {
          "internalType": "contract IERC20Upgradeable",
          "name": "",
          "type": "address"
        }
      ],
      "stateMutability": "view",
      "type": "function"
    },
    {
      "inputs": [],
      "name": "withdrawWETH",
      "outputs": [],
      "stateMutability": "nonpayable",
      "type": "function"
    }
  ],
  "bytecode": "0x608060405234801561001057600080fd5b50612299806100206000396000f3fe608060405234801561001057600080fd5b506004361061015f5760003560e01c806303bbd424146101645780631bdaccd8146101795780631e111751146101945780631e2de0d1146101b457806325f86e91146101c7578063318d9e5d146101cf5780633884d635146101e25780633d636015146102025780633f2ba3451461020b5780633fc8cef31461021e578063464adac21461023157806348d2f0db1461023a5780634c02f62e1461024d5780634e71d92d1461025557806364aed6011461025d57806371907f1714610270578063986fe9bd14610283578063c649f04014610296578063cb5a872d146102a9578063ccf010d8146102bc578063d57b10db146102d5578063db4dce70146102de578063dbb0f6f3146102f1578063dc6c867b1461032f578063e2df015014610342578063e51e455914610355578063ef88aff114610368578063f5e95acb1461037b578063fcbf8b241461038e575b600080fd5b6101776101723660046119e5565b6103b9565b005b610181600781565b6040519081526020015b60405180910390f35b6101816101a2366004611a13565b600b6020526000908152604090205481565b6101776101c2366004611a7b565b610463565b61018160c881565b6101776101dd366004611a7b565b610479565b6001546101f5906001600160a01b031681565b60405161018b9190611abc565b61018160085481565b6101f5610219366004611ad0565b6107a4565b6007546101f5906001600160a01b031681565b61018161012c81565b610177610248366004611b4b565b6108dc565b610177610a04565b610177610b3b565b61018161026b366004611bce565b610bc9565b6005546101f5906001600160a01b031681565b6006546101f5906001600160a01b031681565b6002546101f5906001600160a01b031681565b6003546101f5906001600160a01b031681565b6000546101f5906201000090046001600160a01b031681565b61018161271081565b6101776102ec366004611c22565b610e18565b61031f6102ff366004611c89565b600c60209081526000928352604080842090915290825290205460ff1681565b604051901515815260200161018b565b6004546101f5906001600160a01b031681565b610177610350366004611cb5565b610ed9565b610177610363366004611d40565b611066565b6009546101f5906001600160a01b031681565b610177610389366004611daf565b611143565b61018161039c366004611c89565b600a60209081526000928352604080842090915290825290205481565b600554604051630935e01b60e21b81526001600160a01b03909116906324d7806c906103e9903390600401611abc565b60206040518083038186803b15801561040157600080fd5b505afa158015610415573d6000803e3d6000fd5b505050506040513d601f19601f820116820180604052508101906104399190611e80565b61045e5760405162461bcd60e51b815260040161045590611e9b565b60405180910390fd5b600855565b61046d8282610479565b610475610b3b565b5050565b6003546040805163900cf0cf60e01b815290516000926001600160a01b03169163900cf0cf916004808301926020929190829003018186803b1580156104be57600080fd5b505afa1580156104d2573d6000803e3d6000fd5b505050506040513d601f19601f820116820180604052508101906104f69190611ebe565b90506000610505600183611eed565b90506000805b8481101561067e57600086868381811061052757610527611f04565b905060200201602081019061053c9190611a13565b6002546040516302ac50af60e41b81529192506000916001600160a01b0390911690632ac50af090610572908590600401611abc565b60206040518083038186803b15801561058a57600080fd5b505afa15801561059e573d6000803e3d6000fd5b505050506040513d601f19601f820116820180604052508101906105c29190611ebe565b905080156106695760095460405163e93119d960e01b81526000916001600160a01b03169063e93119d9906105ff90339087908b90600401611f1a565b60206040518083038186803b15801561061757600080fd5b505afa15801561062b573d6000803e3d6000fd5b505050506040513d601f19601f8201168201806040525081019061064f9190611ebe565b905061065b8282611f3e565b6106659086611f5d565b9450505b5050808061067690611f75565b91505061050b565b50801561079d57336000908152600a60209081526040808320858452909152902054156106e45760405162461bcd60e51b81526020600482015260146024820152731d5cd95c88185b1c9958591e4818db185a5b595960621b6044820152606401610455565b336000818152600a602090815260408083208684529091528120839055546201000090046001600160a01b03169063a647e8ec9085846001610727600784611f5d565b6107319190611eed565b6040516001600160e01b031960e087901b1681526001600160a01b039094166004850152602484019290925260448301526064820152608401600060405180830381600087803b15801561078457600080fd5b505af1158015610798573d6000803e3d6000fd5b505050505b5050505050565b6008546007546000916107c4916001600160a01b0316903390309061131e565b6006546003546040805163900cf0cf60e01b815290516001600160a01b039384169363c81a864c93339391169163900cf0cf91600480820192602092909190829003018186803b15801561081757600080fd5b505afa15801561082b573d6000803e3d6000fd5b505050506040513d601f19601f8201168201806040525081019061084f9190611ebe565b61085a906001611f5d565b60038888886040518763ffffffff1660e01b815260040161088096959493929190611f90565b602060405180830381600087803b15801561089a57600080fd5b505af11580156108ae573d6000803e3d6000fd5b505050506040513d601f19601f820116820180604052508101906108d29190611fe3565b90505b9392505050565b6005546040516335d2155560e11b81526001600160a01b0390911690636ba42aaa9061090c903390600401611abc565b60206040518083038186803b15801561092457600080fd5b505afa158015610938573d6000803e3d6000fd5b505050506040513d601f19601f8201168201806040525081019061095c9190611e80565b8061096f5750336001600160a01b038216145b61098b5760405162461bcd60e51b815260040161045590612000565b60005b848110156109fc576109ea8686838181106109ab576109ab611f04565b90506020020160208101906109c09190611a13565b8585848181106109d2576109d2611f04565b90506020028101906109e49190612033565b85611376565b806109f481611f75565b91505061098e565b505050505050565b600554604051630935e01b60e21b81526001600160a01b03909116906324d7806c90610a34903390600401611abc565b60206040518083038186803b158015610a4c57600080fd5b505afa158015610a60573d6000803e3d6000fd5b505050506040513d601f19601f82011682018060405250810190610a849190611e80565b610aa05760405162461bcd60e51b815260040161045590611e9b565b6007546040516370a0823160e01b8152610b399133916001600160a01b03909116906370a0823190610ad6903090600401611abc565b60206040518083038186803b158015610aee57600080fd5b505afa158015610b02573d6000803e3d6000fd5b505050506040513d601f19601f82011682018060405250810190610b269190611ebe565b6007546001600160a01b031691906113e4565b565b336000908152600b60205260409020548015610bc657336000818152600b6020526040808220829055905490516340c10f1960e01b8152620100009091046001600160a01b0316916340c10f1991610b989190859060040161207c565b600060405180830381600087803b158015610bb257600080fd5b505af115801561079d573d6000803e3d6000fd5b50565b600080600360009054906101000a90046001600160a01b03166001600160a01b031663900cf0cf6040518163ffffffff1660e01b815260040160206040518083038186803b158015610c1a57600080fd5b505afa158015610c2e573d6000803e3d6000fd5b505050506040513d601f19601f82011682018060405250810190610c529190611ebe565b90506000610c61600183611eed565b6001600160a01b0387166000908152600a6020908152604080832084845290915290205490915015610c98576000925050506108d5565b60005b84811015610e0e576000868683818110610cb757610cb7611f04565b9050602002016020810190610ccc9190611a13565b6002546040516302ac50af60e41b81529192506000916001600160a01b0390911690632ac50af090610d02908590600401611abc565b60206040518083038186803b158015610d1a57600080fd5b505afa158015610d2e573d6000803e3d6000fd5b505050506040513d601f19601f82011682018060405250810190610d529190611ebe565b90508015610df95760095460405163e93119d960e01b81526000916001600160a01b03169063e93119d990610d8f908d9087908a90600401611f1a565b60206040518083038186803b158015610da757600080fd5b505afa158015610dbb573d6000803e3d6000fd5b505050506040513d601f19601f82011682018060405250810190610ddf9190611ebe565b9050610deb8282611f3e565b610df59088611f5d565b9650505b50508080610e0690611f75565b915050610c9b565b5050509392505050565b6005546040516335d2155560e11b81526001600160a01b0390911690636ba42aaa90610e48903390600401611abc565b60206040518083038186803b158015610e6057600080fd5b505afa158015610e74573d6000803e3d6000fd5b505050506040513d601f19601f82011682018060405250810190610e989190611e80565b80610eab5750336001600160a01b038216145b610ec75760405162461bcd60e51b815260040161045590612000565b610ed384848484611376565b50505050565b600554604051630a83aaa960e31b81526001600160a01b039091169063541d554890610f09903390600401611abc565b60206040518083038186803b158015610f2157600080fd5b505afa158015610f35573d6000803e3d6000fd5b505050506040513d601f19601f82011682018060405250810190610f599190611e80565b610f755760405162461bcd60e51b815260040161045590612095565b848314610fb75760405162461bcd60e51b815260206004820152601060248201526f1b195b99dd1a08191a5999995c995b9d60821b6044820152606401610455565b60005b8581101561105d5761104b878783818110610fd757610fd7611f04565b9050602002016020810190610fec9190611a13565b868684818110610ffe57610ffe611f04565b90506020028101906110109190612033565b808060200260200160405190810160405280939291908181526020018383602002808284376000920191909152508892508791506114089050565b8061105581611f75565b915050610fba565b50505050505050565b600554604051630a83aaa960e31b81526001600160a01b039091169063541d554890611096903390600401611abc565b60206040518083038186803b1580156110ae57600080fd5b505afa1580156110c2573d6000803e3d6000fd5b505050506040513d601f19601f820116820180604052508101906110e69190611e80565b6111025760405162461bcd60e51b815260040161045590612095565b61079d858585808060200260200160405190810160405280939291908181526020018383602002808284376000920191909152508792508691506114089050565b600054610100900460ff1661115e5760005460ff1615611166565b61116661168a565b6111c95760405162461bcd60e51b815260206004820152602e60248201527f496e697469616c697a61626c653a20636f6e747261637420697320616c72656160448201526d191e481a5b9a5d1a585b1a5e995960921b6064820152608401610455565b600054610100900460ff161580156111eb576000805461ffff19166101011790555b600980546001600160a01b038c81166001600160a01b03199283168117909355600080548d831662010000810262010000600160b01b031990921691909117909155600180548d84169085168117909155600280548d85169086168117909155600380548d86169087168117909155600480548d87169088168117909155600580548d88169089168117909155600680548d8916908a16811790915560078054988d1698909916881790985560408051998a5260208a0196909652948801939093526060870191909152608086015260a085015260c084015260e08301919091526101008201527f0552a30f2930f88d2de62ab23ac2c395e9da199f4b08ac1a8c60c3faa9bfa760906101200160405180910390a18015611312576000805461ff00191690555b50505050505050505050565b610ed3846323b872dd60e01b85858560405160240161133f93929190611f1a565b60408051601f198184030181529190526020810180516001600160e01b03166001600160e01b03199093169290921790915261169b565b600954604051630db4dce760e41b81526001600160a01b039091169063db4dce70906113ac9087908790879087906004016120ba565b600060405180830381600087803b1580156113c657600080fd5b505af11580156113da573d6000803e3d6000fd5b5050505050505050565b6114038363a9059cbb60e01b848460405160240161133f92919061207c565b505050565b6009546040516383a048b760e01b81526001600160a01b03909116906383a048b79061143c90879087908790600401612115565b600060405180830381600087803b15801561145657600080fd5b505af115801561146a573d6000803e3d6000fd5b5050600480546040516391d3924760e01b81526001600160a01b0390911693506391d39247925061149d91869101611abc565b600060405180830381600087803b1580156114b757600080fd5b505af11580156114cb573d6000803e3d6000fd5b50506002546040516302ac50af60e41b8152600093506001600160a01b039091169150632ac50af090611502908890600401611abc565b60206040518083038186803b15801561151a57600080fd5b505afa15801561152e573d6000803e3d6000fd5b505050506040513d601f19601f820116820180604052508101906115529190611ebe565b9050801561079d576001546001600160a01b0316156115ce576001546040516321860a0560e01b81526001600160a01b03909116906321860a059061159b908690600401611abc565b600060405180830381600087803b1580156115b557600080fd5b505af11580156115c9573d6000803e3d6000fd5b505050505b835160005b855181101561167d5760008682815181106115f0576115f0611f04565b6020908102919091018101516001600160a01b038a166000908152600c83526040808220838352909352919091205490915060ff161561163d57826116348161217a565b9350505061166b565b6001600160a01b0388166000908152600c6020908152604080832093835292905220805460ff191660011790555b8061167581611f75565b9150506115d3565b506109fc8282868661176d565b6000611695306118c4565b15905090565b60006116f0826040518060400160405280602081526020017f5361666545524332303a206c6f772d6c6576656c2063616c6c206661696c6564815250856001600160a01b03166118d39092919063ffffffff16565b805190915015611403578080602001905181019061170e9190611e80565b6114035760405162461bcd60e51b815260206004820152602a60248201527f5361666545524332303a204552433230206f7065726174696f6e20646964206e6044820152691bdd081cdd58d8d9595960b21b6064820152608401610455565b60006117798486611f3e565b600480546040516376453cf160e11b815291820185905291925060009182916001600160a01b039091169063ec8a79e290602401604080518083038186803b1580156117c457600080fd5b505afa1580156117d8573d6000803e3d6000fd5b505050506040513d601f19601f820116820180604052508101906117fc9190612191565b90925090506001600160a01b0382161561188e5760008161181e5760c8611822565b61012c5b90506127106118318286611f3e565b61183b91906121c6565b6118459085611f5d565b935061271061185560c886611f3e565b61185f91906121c6565b6001600160a01b0384166000908152600b602052604081208054909190611887908490611f5d565b9091555050505b6001600160a01b0385166000908152600b6020526040812080548592906118b6908490611f5d565b909155505050505050505050565b6001600160a01b03163b151590565b60606108d28484600085856118e7856118c4565b6119335760405162461bcd60e51b815260206004820152601d60248201527f416464726573733a2063616c6c20746f206e6f6e2d636f6e74726163740000006044820152606401610455565b600080866001600160a01b0316858760405161194f9190612214565b60006040518083038185875af1925050503d806000811461198c576040519150601f19603f3d011682016040523d82523d6000602084013e611991565b606091505b50915091506119a18282866119ac565b979650505050505050565b606083156119bb5750816108d5565b8251156119cb5782518084602001fd5b8160405162461bcd60e51b81526004016104559190612230565b6000602082840312156119f757600080fd5b5035919050565b6001600160a01b0381168114610bc657600080fd5b600060208284031215611a2557600080fd5b81356108d5816119fe565b60008083601f840112611a4257600080fd5b5081356001600160401b03811115611a5957600080fd5b6020830191508360208260051b8501011115611a7457600080fd5b9250929050565b60008060208385031215611a8e57600080fd5b82356001600160401b03811115611aa457600080fd5b611ab085828601611a30565b90969095509350505050565b6001600160a01b0391909116815260200190565b600080600060408486031215611ae557600080fd5b8335925060208401356001600160401b0380821115611b0357600080fd5b818601915086601f830112611b1757600080fd5b813581811115611b2657600080fd5b876020828501011115611b3857600080fd5b6020830194508093505050509250925092565b600080600080600060608688031215611b6357600080fd5b85356001600160401b0380821115611b7a57600080fd5b611b8689838a01611a30565b90975095506020880135915080821115611b9f57600080fd5b50611bac88828901611a30565b9094509250506040860135611bc0816119fe565b809150509295509295909350565b600080600060408486031215611be357600080fd5b8335611bee816119fe565b925060208401356001600160401b03811115611c0957600080fd5b611c1586828701611a30565b9497909650939450505050565b60008060008060608587031215611c3857600080fd5b8435611c43816119fe565b935060208501356001600160401b03811115611c5e57600080fd5b611c6a87828801611a30565b9094509250506040850135611c7e816119fe565b939692955090935050565b60008060408385031215611c9c57600080fd5b8235611ca7816119fe565b946020939093013593505050565b60008060008060008060808789031215611cce57600080fd5b86356001600160401b0380821115611ce557600080fd5b611cf18a838b01611a30565b90985096506020890135915080821115611d0a57600080fd5b50611d1789828a01611a30565b9095509350506040870135611d2b816119fe565b80925050606087013590509295509295509295565b600080600080600060808688031215611d5857600080fd5b8535611d63816119fe565b945060208601356001600160401b03811115611d7e57600080fd5b611d8a88828901611a30565b9095509350506040860135611d9e816119fe565b949793965091946060013592915050565b60008060008060008060008060006101208a8c031215611dce57600080fd5b8935611dd9816119fe565b985060208a0135611de9816119fe565b975060408a0135611df9816119fe565b965060608a0135611e09816119fe565b955060808a0135611e19816119fe565b945060a08a0135611e29816119fe565b935060c08a0135611e39816119fe565b925060e08a0135611e49816119fe565b91506101008a0135611e5a816119fe565b809150509295985092959850929598565b80518015158114611e7b57600080fd5b919050565b600060208284031215611e9257600080fd5b6108d582611e6b565b60208082526009908201526837b7363ca0b236b4b760b91b604082015260600190565b600060208284031215611ed057600080fd5b5051919050565b634e487b7160e01b600052601160045260246000fd5b600082821015611eff57611eff611ed7565b500390565b634e487b7160e01b600052603260045260246000fd5b6001600160a01b039384168152919092166020820152604081019190915260600190565b6000816000190483118215151615611f5857611f58611ed7565b500290565b60008219821115611f7057611f70611ed7565b500190565b6000600019821415611f8957611f89611ed7565b5060010190565b60018060a01b038716815285602082015284604082015283606082015260a060808201528160a0820152818360c0830137600081830160c090810191909152601f909201601f1916010195945050505050565b600060208284031215611ff557600080fd5b81516108d5816119fe565b60208082526019908201527837b7363c9035b2b2b832b91037b9103a37b5b2b727bbb732b960391b604082015260600190565b6000808335601e1984360301811261204a57600080fd5b8301803591506001600160401b0382111561206457600080fd5b6020019150600581901b3603821315611a7457600080fd5b6001600160a01b03929092168252602082015260400190565b6020808252600b908201526a37b7363ca932b630bcb2b960a91b604082015260600190565b6001600160a01b03858116825260606020830181905282018490526000906001600160fb1b038511156120ec57600080fd5b8460051b8087608086013760009084016080019081529316604090920191909152509392505050565b6001600160a01b038481168252606060208084018290528551918401829052600092868201929091906080860190855b8181101561216157855183529483019491830191600101612145565b5050809450505080851660408501525050949350505050565b60008161218957612189611ed7565b506000190190565b600080604083850312156121a457600080fd5b82516121af816119fe565b91506121bd60208401611e6b565b90509250929050565b6000826121e357634e487b7160e01b600052601260045260246000fd5b500490565b60005b838110156122035781810151838201526020016121eb565b83811115610ed35750506000910152565b600082516122268184602087016121e8565b9190910192915050565b602081526000825180602084015261224f8160408501602087016121e8565b601f01601f1916919091016040019291505056fea2646970667358221220cd826dff122bc90ed3025a000caf8b4fa1102523dcaf46d758757ee9b4f50eca64736f6c63430008080033",
  "linkReferences": {},
  "deployedLinkReferences": {}
}