{
  "_format": "hh-sol-artifact-1",
  "contractName": "IPPoolShadow",
  "sourceName": "contracts/IPPool.sol",
  "abi": [
    {
      "anonymous": false,
      "inputs": [
        {
          "indexed": true,
          "internalType": "address",
          "name": "token",
          "type": "address"
        },
        {
          "indexed": true,
          "internalType": "uint256",
          "name": "tokenId",
          "type": "uint256"
        },
        {
          "indexed": false,
          "internalType": "address",
          "name": "operator",
          "type": "address"
        },
        {
          "indexed": false,
          "internalType": "address",
          "name": "tokenOwner",
          "type": "address"
        }
      ],
      "name": "IPAdded",
      "type": "event"
    },
    {
      "anonymous": false,
      "inputs": [
        {
          "indexed": true,
          "internalType": "address",
          "name": "token",
          "type": "address"
        },
        {
          "indexed": true,
          "internalType": "uint256",
          "name": "tokenId",
          "type": "uint256"
        },
        {
          "indexed": false,
          "internalType": "address",
          "name": "operator",
          "type": "address"
        },
        {
          "indexed": false,
          "internalType": "address",
          "name": "tokenOwner",
          "type": "address"
        }
      ],
      "name": "IPRemoved",
      "type": "event"
    },
    {
      "anonymous": false,
      "inputs": [
        {
          "indexed": true,
          "internalType": "address",
          "name": "previousOwner",
          "type": "address"
        },
        {
          "indexed": true,
          "internalType": "address",
          "name": "newOwner",
          "type": "address"
        }
      ],
      "name": "OwnershipTransferred",
      "type": "event"
    },
    {
      "inputs": [
        {
          "internalType": "address",
          "name": "token",
          "type": "address"
        },
        {
          "internalType": "uint256",
          "name": "tokenId",
          "type": "uint256"
        },
        {
          "internalType": "address",
          "name": "owner",
          "type": "address"
        }
      ],
      "name": "IPAdd",
      "outputs": [],
      "stateMutability": "nonpayable",
      "type": "function"
    },
    {
      "inputs": [
        {
          "internalType": "address",
          "name": "token",
          "type": "address"
        },
        {
          "internalType": "uint256",
          "name": "tokenId",
          "type": "uint256"
        }
      ],
      "name": "IPRemove",
      "outputs": [],
      "stateMutability": "nonpayable",
      "type": "function"
    },
    {
      "inputs": [],
      "name": "allIP",
      "outputs": [
        {
          "components": [
            {
              "internalType": "address",
              "name": "token",
              "type": "address"
            },
            {
              "internalType": "uint256",
              "name": "tokenId",
              "type": "uint256"
            }
          ],
          "internalType": "struct IPPool.IP[]",
          "name": "",
          "type": "tuple[]"
        }
      ],
      "stateMutability": "view",
      "type": "function"
    },
    {
      "inputs": [],
      "name": "chainId",
      "outputs": [
        {
          "internalType": "uint256",
          "name": "",
          "type": "uint256"
        }
      ],
      "stateMutability": "view",
      "type": "function"
    },
    {
      "inputs": [
        {
          "internalType": "uint256",
          "name": "_chainId",
          "type": "uint256"
        }
      ],
      "name": "initialize",
      "outputs": [],
      "stateMutability": "nonpayable",
      "type": "function"
    },
    {
      "inputs": [
        {
          "internalType": "address",
          "name": "token",
          "type": "address"
        },
        {
          "internalType": "uint256",
          "name": "tokenId",
          "type": "uint256"
        }
      ],
      "name": "ipKey",
      "outputs": [
        {
          "internalType": "bytes32",
          "name": "",
          "type": "bytes32"
        }
      ],
      "stateMutability": "pure",
      "type": "function"
    },
    {
      "inputs": [],
      "name": "ipLength",
      "outputs": [
        {
          "internalType": "uint256",
          "name": "",
          "type": "uint256"
        }
      ],
      "stateMutability": "view",
      "type": "function"
    },
    {
      "inputs": [
        {
          "internalType": "uint256",
          "name": "",
          "type": "uint256"
        }
      ],
      "name": "iplist",
      "outputs": [
        {
          "internalType": "address",
          "name": "token",
          "type": "address"
        },
        {
          "internalType": "uint256",
          "name": "tokenId",
          "type": "uint256"
        }
      ],
      "stateMutability": "view",
      "type": "function"
    },
    {
      "inputs": [
        {
          "internalType": "bytes32",
          "name": "",
          "type": "bytes32"
        }
      ],
      "name": "ips",
      "outputs": [
        {
          "internalType": "address",
          "name": "",
          "type": "address"
        }
      ],
      "stateMutability": "view",
      "type": "function"
    },
    {
      "inputs": [],
      "name": "owner",
      "outputs": [
        {
          "internalType": "address",
          "name": "",
          "type": "address"
        }
      ],
      "stateMutability": "view",
      "type": "function"
    },
    {
      "inputs": [
        {
          "internalType": "address",
          "name": "token",
          "type": "address"
        },
        {
          "internalType": "uint256",
          "name": "tokenId",
          "type": "uint256"
        }
      ],
      "name": "ownerOf",
      "outputs": [
        {
          "internalType": "address",
          "name": "registedOwner",
          "type": "address"
        },
        {
          "internalType": "address",
          "name": "realOwner",
          "type": "address"
        }
      ],
      "stateMutability": "view",
      "type": "function"
    },
    {
      "inputs": [],
      "name": "renounceOwnership",
      "outputs": [],
      "stateMutability": "nonpayable",
      "type": "function"
    },
    {
      "inputs": [
        {
          "internalType": "address",
          "name": "newOwner",
          "type": "address"
        }
      ],
      "name": "transferOwnership",
      "outputs": [],
      "stateMutability": "nonpayable",
      "type": "function"
    }
  ],
  "bytecode": "0x608060405234801561001057600080fd5b5061099d806100206000396000f3fe608060405234801561001057600080fd5b50600436106100af5760003560e01c806306dc190e146100b45780631f29d2dc146100c95780632b3fa301146100f3578063380ef1ed146101065780634543c0b714610147578063635260251461015c578063715018a61461016e5780637d58f3d4146101765780638da5cb5b146101895780639a8a059214610191578063c39fb26e1461019a578063f2fde38b146101cc578063fe4b84df146101df575b600080fd5b6100c76100c23660046107d4565b6101f2565b005b6100dc6100d73660046107d4565b610238565b6040516100ea9291906107fe565b60405180910390f35b6100c7610101366004610818565b61024f565b61012f610114366004610854565b6065602052600090815260409020546001600160a01b031681565b6040516001600160a01b0390911681526020016100ea565b61014f61028e565b6040516100ea919061086d565b6066545b6040519081526020016100ea565b6100c7610303565b6101606101843660046107d4565b61033e565b61012f610380565b61016060675481565b6101ad6101a8366004610854565b61038f565b604080516001600160a01b0390931683526020830191909152016100ea565b6100c76101da3660046108c5565b6103c7565b6100c76101ed366004610854565b610467565b336101fb610380565b6001600160a01b03161461022a5760405162461bcd60e51b8152600401610221906108e7565b60405180910390fd5b610234828261056d565b5050565b60008061024584846105ec565b9485945092505050565b33610258610380565b6001600160a01b03161461027e5760405162461bcd60e51b8152600401610221906108e7565b610289838383610619565b505050565b60606066805480602002602001604051908101604052809291908181526020016000905b828210156102fa576000848152602090819020604080518082019091526002850290910180546001600160a01b031682526001908101548284015290835290920191016102b2565b50505050905090565b3361030c610380565b6001600160a01b0316146103325760405162461bcd60e51b8152600401610221906108e7565b61033c600061070c565b565b6040516001600160601b0319606084901b1660208201526034810182905260009060540160405160208183030381529060405280519060200120905092915050565b6033546001600160a01b031690565b6066818154811061039f57600080fd5b6000918252602090912060029091020180546001909101546001600160a01b03909116915082565b336103d0610380565b6001600160a01b0316146103f65760405162461bcd60e51b8152600401610221906108e7565b6001600160a01b03811661045b5760405162461bcd60e51b815260206004820152602660248201527f4f776e61626c653a206e6577206f776e657220697320746865207a65726f206160448201526564647265737360d01b6064820152608401610221565b6104648161070c565b50565b600054610100900460ff166104825760005460ff1615610486565b303b155b6104e95760405162461bcd60e51b815260206004820152602e60248201527f496e697469616c697a61626c653a20636f6e747261637420697320616c72656160448201526d191e481a5b9a5d1a585b1a5e995960921b6064820152608401610221565b600054610100900460ff1615801561050b576000805461ffff19166101011790555b61051361075e565b468214156105535760405162461bcd60e51b815260206004820152600d60248201526c1ddc9bdb99c818da185a5b9259609a1b6044820152606401610221565b60678290558015610234576000805461ff00191690555050565b6000610579838361033e565b6000818152606560205260409081902080546001600160a01b0319811690915590519192506001600160a01b039081169184918616907f771b4d9c442e28eb9f829cdeca5d28037d743fccc5af29f305b104c9ede1be44906105de90339086906107fe565b60405180910390a350505050565b6000806105f9848461033e565b6000908152606560205260409020546001600160a01b0316949350505050565b6000610625848461033e565b600081815260656020908152604080832080546001600160a01b03199081166001600160a01b0389811691909117909255825180840184528a83168082529481018a815260668054600181018255975290517f46501879b8ca8525e8c2fd519e2fbfcfa2ebea26501294aa02cbfcfb12e94354600290970296870180549093169316929092179055517f46501879b8ca8525e8c2fd519e2fbfcfa2ebea26501294aa02cbfcfb12e9435590930192909255905191925084917f9a18876a2327b74709f521f0263f4a8756730dfaf9fdd5646f63931296bfc7b0906105de90339087906107fe565b603380546001600160a01b038381166001600160a01b0319831681179093556040519116919082907f8be0079c531659141344cd1fd0a4f28419497f9722a3daafe3b4186f6b6457e090600090a35050565b600054610100900460ff166107855760405162461bcd60e51b81526004016102219061091c565b61033c600054610100900460ff166107af5760405162461bcd60e51b81526004016102219061091c565b61033c3361070c565b80356001600160a01b03811681146107cf57600080fd5b919050565b600080604083850312156107e757600080fd5b6107f0836107b8565b946020939093013593505050565b6001600160a01b0392831681529116602082015260400190565b60008060006060848603121561082d57600080fd5b610836846107b8565b92506020840135915061084b604085016107b8565b90509250925092565b60006020828403121561086657600080fd5b5035919050565b602080825282518282018190526000919060409081850190868401855b828110156108b857815180516001600160a01b0316855286015186850152928401929085019060010161088a565b5091979650505050505050565b6000602082840312156108d757600080fd5b6108e0826107b8565b9392505050565b6020808252818101527f4f776e61626c653a2063616c6c6572206973206e6f7420746865206f776e6572604082015260600190565b6020808252602b908201527f496e697469616c697a61626c653a20636f6e7472616374206973206e6f74206960408201526a6e697469616c697a696e6760a81b60608201526080019056fea2646970667358221220d0ddd02c169bdaff5c27e57c31fbeb76e7ce0bafcafde50bf11c98806094ddc164736f6c63430008080033",
  "linkReferences": {},
  "deployedLinkReferences": {}
}